{
  "contractName": "DappToken",
  "abi": [
    {
      "constant": true,
      "inputs": [],
      "name": "totalSupply",
      "outputs": [
        {
          "name": "",
          "type": "uint256"
        }
      ],
      "payable": false,
      "stateMutability": "view",
      "type": "function"
    },
    {
      "inputs": [
        {
          "name": "_initialSupply",
          "type": "uint256"
        }
      ],
      "payable": false,
      "stateMutability": "nonpayable",
      "type": "constructor"
    }
  ],
  "bytecode": "0x608060405234801561001057600080fd5b506040516020806100d28339810180604052602081101561003057600080fd5b81019080805190602001909291905050508060008190555050607b806100576000396000f3fe6080604052348015600f57600080fd5b506004361060285760003560e01c806318160ddd14602d575b600080fd5b60336049565b6040518082815260200191505060405180910390f35b6000548156fea165627a7a723058203c8f728b8f1f46523e175aae08256abec8570c3c2d4dee41caf529a1153f50880029",
  "source": "pragma solidity >=0.4.21 <0.6.0;\n\ncontract DappToken {\n    uint256 public totalSupply;\n\n    constructor (uint256 _initialSupply) public {\n        totalSupply = _initialSupply;\n    }\n}\n",
  "sourcePath": "/c/Users/henri/OneDrive/Desktop/token_sale_2/contracts/DappToken.sol",
  "compiler": {
    "name": "solc",
    "version": "0.5.8+commit.23d335f2.Emscripten.clang"
  },
  "schemaVersion": "3.0.16",
  "updatedAt": "2019-10-18T15:58:22.407Z",
  "devdoc": {
    "methods": {}
  },
  "userdoc": {
    "methods": {}
  }
}